:020000040800F2
:100000000000022069320008552C00085B2C000813
:10001000612C0008672C00086D2C0008000000000F
:10002000000000000000000000000000732C000829
:100030007F2C0008000000008B2C0008972C000883
:10004000B9320008B9320008B9320008B9320008E4
:10005000B9320008B9320008B9320008B9320008D4
:10006000B9320008B9320008B9320008B9320008C4
:10007000B9320008B9320008B9320008B9320008B4
:10008000B9320008B9320008B9320008B9320008A4
:10009000B9320008B9320008B9320008B932000894
:1000A000B9320008B9320008B9320008B932000884
:1000B000B9320008B9320008B9320008B932000874
:1000C000B9320008B9320008B9320008B932000864
:1000D000B9320008A52C0008B92C0008B932000874
:1000E000B9320008B9320008B9320008B932000844
:1000F000B9320008B9320008B9320008B932000834
:10010000B9320008B9320008B9320008B932000823
:10011000B9320008B9320008CD2C0008B932000805
:10012000E12C0008B9320008B9320008B9320008E1
:10013000B93200080000000000000000B9320008D9
:10014000B9320008B9320008B9320008B9320008E3
:10015000B9320008B9320008B9320008F52C00089D
:10016000B9320008B9320008B9320008B9320008C3
:10017000B9320008B9320008B932000800000000A6
:1001800000000000B932000800000000000000007C
:10019000B93200080000000000000000B932000879
:1001A000000000000000000000000000B93200085C
:1001B000B9320008B9320008B9320008B932000873
:0401C000B932000848
:1001D00010B5054C237833B9044B13B10448AFF381
:1001E00000800123237010BDE0010020000000000A
:1001F000ECB9000808B5034B1BB103490348AFF342
:10020000008008BD00000000E4010020ECB90008F7
:10021000034613F8012B002AFBD1181A0138704746
:1002200001F0FF01102A2BDB10F0070F08D010F8A7
:10023000013B013A8B422DD010F0070F42B3F6D1AB
:10024000F0B441EA012141EA014122F007047FF0C4
:1002500000070023F0E80256083C85EA010586EA1B
:10026000010685FA47F5A3FA87F586FA47F6A5FA57
:1002700087F68EB9EED1F0BC01F0FF0102F0070263
:1002800032B110F8013B013A83EA010313B1F8D10E
:100290000020704701387047002D06BF35460338EF
:1002A000073815F0010F07D1013015F4807F02BF28
:1002B000013015F4C03F0130F0BC0138704700BF79
:1002C00081F0004102E000BF83F0004330B54FEA07
:1002D00041044FEA430594EA050F08BF90EA020F74
:1002E0001FBF54EA000C55EA020C7FEA645C7FEA07
:1002F000655C00F0E2804FEA5454D4EB5555B8BF2A
:100300006D420CDD2C4480EA020281EA030382EA9A
:10031000000083EA010180EA020281EA0303362D2C
:1003200088BF30BD11F0004F4FEA01314FF4801CFF
:100330004CEA113102D0404261EB410113F0004F11
:100340004FEA03334CEA133302D0524263EB4303C8
:1003500094EA050F00F0A780A4F10104D5F1200E66
:100360000DDB02FA0EFC22FA05F2801841F10001C1
:1003700003FA0EF2801843FA05F359410EE0A5F195
:1003800020050EF1200E012A03FA0EFC28BF4CF0C6
:10039000020C43FA05F3C01851EBE37101F000457C
:1003A00007D54FF0000EDCF1000C7EEB00006EEB89
:1003B0000101B1F5801F1BD3B1F5001F0CD3490813
:1003C0005FEA30004FEA3C0C04F101044FEA44526A
:1003D00012F5800F80F09A80BCF1004F08BF5FEAF1
:1003E000500C50F1000041EB045141EA050130BDD1
:1003F0005FEA4C0C404141EB0101013C28BFB1F5E3
:10040000801FE9D291F0000F04BF01460020B1FA2D
:1004100081F308BF2033A3F10B03B3F120020CDA00
:100420000C3208DD02F1140CC2F10C0201FA0CF0DE
:1004300021FA02F10CE002F11402D8BFC2F1200C43
:1004400001FA02F120FA0CFCDCBF41EA0C019040F9
:10045000E41AA2BF01EB0451294330BD6FEA040442
:100460001F3C1CDA0C340EDC04F11404C4F120022D
:1004700020FA04F001FA02F340EA030021FA04F33F
:1004800045EA030130BDC4F10C04C4F1200220FA96
:1004900002F001FA04F340EA0300294630BD21FAD4
:1004A00004F0294630BD94F0000F83F4801306BF9A
:1004B00081F480110134013D4EE77FEA645C18BF8E
:1004C0007FEA655C29D094EA050F08BF90EA020F25
:1004D00005D054EA000C04BF1946104630BD91EA1D
:1004E000030F1EBF0021002030BD5FEA545C05D120
:1004F0004000494128BF41F0004130BD14F580045F
:100500003CBF01F5801130BD01F0004545F0FE41D2
:1005100041F470014FF0000030BD7FEA645C1ABF07
:10052000194610467FEA655C1CBF0B46024650EA3E
:10053000013406BF52EA033591EA030F41F400216A
:1005400030BD00BF90F0000F04BF0021704730B5F0
:100550004FF4806404F132044FF000054FF00001C5
:1005600050E700BF90F0000F04BF0021704730B586
:100570004FF4806404F1320410F0004548BF40425B
:100580004FF000013EE700BF42004FEAE2014FEAB0
:1005900031014FEA02701FBF12F07F4393F07F4F8B
:1005A00081F06051704732F07F4208BF704793F08E
:1005B0007F4F04BF41F40021704730B54FF46074A1
:1005C00001F0004521F000411CE700BF50EA0102A4
:1005D00008BF704730B54FF000050AE050EA01024D
:1005E00008BF704730B511F0004502D5404261EBBD
:1005F00041014FF4806404F132045FEA915C3FF4FE
:10060000D8AE4FF003025FEADC0C18BF03325FEA9A
:10061000DC0C18BF033202EBDC02C2F1200300FA4B
:1006200003FC20FA02F001FA03FE40EA0E0021FA70
:1006300002F11444BDE600BF70B54FF0FF0C4CF45E
:10064000E06C1CEA11541DBF1CEA135594EA0C0F10
:1006500095EA0C0F00F0DEF82C4481EA030621EA4B
:100660004C5123EA4C5350EA013518BF52EA033586
:1006700041F4801143F4801338D0A0FB02CE4FF038
:100680000005E1FB02E506F00042E0FB03E54FF068
:100690000006E1FB03569CF0000F18BF4EF0010E60
:1006A000A4F1FF04B6F5007F64F5407404D25FEA5C
:1006B0004E0E6D4146EB060642EAC62141EA55510F
:1006C0004FEAC52040EA5E504FEACE2EB4F1FD0C51
:1006D00088BFBCF5E06F1ED8BEF1004F08BF5FEACF
:1006E000500E50F1000041EB045170BD06F0004681
:1006F00046EA010140EA020081EA0301B4EB5C042E
:10070000C2BFD4EB0C0541EA045170BD41F4801125
:100710004FF0000E013C00F3AB8014F1360FDEBF4A
:10072000002001F0004170BDC4F10004203C35DA26
:100730000C341BDC04F11404C4F1200500FA05F3A9
:1007400020FA04F001FA05F240EA020001F000424A
:1007500021F0004110EBD37021FA04F642EB0601C0
:100760005EEA430E08BF20EAD37070BDC4F10C04EA
:10077000C4F1200500FA04F320FA05F001FA04F2AE
:1007800040EA020001F0004110EBD37041F100019A
:100790005EEA430E08BF20EAD37070BDC4F12005A5
:1007A00000FA05F24EEA020E20FA04F301FA05F20D
:1007B00043EA020321FA04F001F0004121FA04F2B5
:1007C00020EA020000EBD3705EEA430E08BF20EA85
:1007D000D37070BD94F0000F0FD101F000464000BF
:1007E00041EB010111F4801F08BF013CF7D041EA41
:1007F000060195F0000F18BF704703F00046520045
:1008000043EB030313F4801F08BF013DF7D043EA15
:100810000603704794EA0C0F0CEA135518BF95EACB
:100820000C0F0CD050EA410618BF52EA4306D1D152
:1008300081EA030101F000414FF0000070BD50EA71
:10084000410606BF1046194652EA430619D094EAFB
:100850000C0F02D150EA013613D195EA0C0F05D1E5
:1008600052EA03361CBF104619460AD181EA030139
:1008700001F0004141F0FE4141F470014FF00000F1
:1008800070BD41F0FE4141F4780170BD70B54FF08C
:10089000FF0C4CF4E06C1CEA11541DBF1CEA13550C
:1008A00094EA0C0F95EA0C0F00F0A7F8A4EB0504EE
:1008B00081EA030E52EA03354FEA013100F08880E5
:1008C0004FEA03334FF0805545EA131343EA1263AE
:1008D0004FEA022245EA111545EA10654FEA002663
:1008E0000EF000419D4208BF964244F1FD0404F51C
:1008F000407402D25B084FEA3202B61A65EB030578
:100900005B084FEA32024FF480104FF4002CB6EB34
:10091000020E75EB030E22BFB61A754640EA0C00B4
:100920005B084FEA3202B6EB020E75EB030E22BFF4
:10093000B61A754640EA5C005B084FEA3202B6EB35
:10094000020E75EB030E22BFB61A754640EA9C00F4
:100950005B084FEA3202B6EB020E75EB030E22BFC4
:10096000B61A754640EADC0055EA060E18D04FEA82
:10097000051545EA16754FEA06164FEAC30343EA22
:1009800052734FEAC2025FEA1C1CC0D111F4801FEF
:100990000BD141EA00014FF000004FF0004CB6E7E8
:1009A00011F4801F04BF01430020B4F1FD0C88BF87
:1009B000BCF5E06F3FF6AFAEB5EB030C04BFB6EB92
:1009C000020C5FEA500C50F1000041EB045170BD85
:1009D0000EF0004E4EEA113114EB5C04C2BFD4EBB2
:1009E0000C0541EA045170BD41F480114FF0000E36
:1009F000013C90E645EA060E8DE60CEA135594EAB2
:100A00000C0F08BF95EA0C0F3FF43BAF94EA0C0FB4
:100A10000AD150EA01347FF434AF95EA0C0F7FF429
:100A200025AF104619462CE795EA0C0F06D152EA7D
:100A300003353FF4FDAE1046194622E750EA410661
:100A400018BF52EA43067FF4C5AE50EA41047FF472
:100A50000DAF52EA43057FF4EBAE12E74FF0FF3CD7
:100A600006E000BF4FF0010C02E000BF4FF0010CA8
:100A70004DF804CD4FEA410C7FEA6C5C4FEA430C21
:100A800018BF7FEA6C5C1BD001B050EA410C0CBF70
:100A900052EA430C91EA030F02BF90EA020F0020D2
:100AA000704710F1000F91EA030F58BF994208BF39
:100AB00090422CBFD8176FEAE37040F001007047F6
:100AC0004FEA410C7FEA6C5C02D150EA013C07D14D
:100AD0004FEA430C7FEA6C5CD6D152EA033CD3D098
:100AE0005DF8040B704700BF8446104662468C4692
:100AF0001946634600E000BF01B5FFF7B7FF0028C5
:100B000048BF10F1000F01BD4DF808EDFFF7F4FFED
:100B10000CBF012000205DF808FB00BF4DF808ED78
:100B2000FFF7EAFF34BF012000205DF808FB00BF9B
:100B30004DF808EDFFF7E0FF94BF012000205DF8BD
:100B400008FB00BF4DF808EDFFF7CEFF94BF012072
:100B500000205DF808FB00BF4DF808EDFFF7C4FF6B
:100B600034BF012000205DF808FB00BF4FEA410CB4
:100B70007FEA6C5C02D150EA013C0AD14FEA430C97
:100B80007FEA6C5C02D152EA033C02D14FF00000D4
:100B900070474FF0010070474FEA410212F5001212
:100BA00015D211D56FF47873B3EB625212D94FEAB4
:100BB000C12343F0004343EA505311F0004F23FA9E
:100BC00002F018BF404270474FF00000704750EAF3
:100BD000013005D111F0004008BF6FF000407047B0
:100BE0004FF00000704700BF4A0011D212F500120A
:100BF00011D20DD56FF47873B3EB62520ED44FEA75
:100C0000C12343F0004343EA505323FA02F07047F4
:100C10004FF00000704750EA013002D14FF0FF3032
:100C200070474FF0000070474FEA4102B2F1E043D5
:100C300024BFB3F5001CDCF1FE5C0DD901F0004CC3
:100C40004FEAC0024CEA5070B2F1004F40EB830013
:100C500008BF20F00100704711F0804F21D113F13F
:100C60003872BCBF01F00040704741F480114FEA78
:100C70005252C2F11802C2F1200C10FA0CF320FA01
:100C800002F018BF40F001004FEAC1234FEAD3231E
:100C900003FA0CFC40EA0C0023FA02F34FEA430388
:100CA000CCE77FEA625307D150EA01331EBF4FF011
:100CB000FE4040F44000704701F0004040F0FE402C
:100CC00040F40000704700BF80F0004002E000BF29
:100CD00081F0004142001FBF5FEA410392EA030F27
:100CE0007FEA226C7FEA236C6AD04FEA1262D2EB71
:100CF0001363C1BFD218414048404140B8BF5B4276
:100D0000192B88BF704710F0004F40F4000020F00E
:100D10007F4018BF404211F0004F41F4000121F024
:100D20007F4118BF494292EA030F3FD0A2F101026E
:100D300041FA03FC10EB0C00C3F1200301FA03F1AC
:100D400000F0004302D5494260EB4000B0F5000FCF
:100D500013D3B0F1807F06D340084FEA310102F18E
:100D60000102FE2A51D2B1F1004F40EBC25008BF40
:100D700020F0010040EA03007047490040EB00000A
:100D8000013A28BFB0F5000FEDD2B0FA80FCACF10B
:100D9000080CB2EB0C0200FA0CF0AABF00EBC25038
:100DA00052421843BCBFD0401843704792F0000F26
:100DB00081F4000106BF80F400000132013BB5E779
:100DC0004FEA41037FEA226C18BF7FEA236C21D0EF
:100DD00092EA030F04D092F0000F08BF0846704754
:100DE00090EA010F1CBF0020704712F07F4F04D122
:100DF000400028BF40F00040704712F100723CBF35
:100E000000F50000704700F0004343F0FE4040F45E
:100E1000000070477FEA226216BF08467FEA23631C
:100E20000146420206BF5FEA412390EA010F40F407
:100E3000800070474FF0000304E000BF10F0004353
:100E400048BF40425FEA000C08BF704743F096433A
:100E500001464FF000001CE050EA010208BF704755
:100E60004FF000030AE000BF50EA010208BF7047DC
:100E700011F0004302D5404261EB41015FEA010CF1
:100E800002BF84460146002043F0B64308BFA3F1E9
:100E90008053A3F50003BCFA8CF2083AA3EBC253CB
:100EA00010DB01FA02FC634400FA02FCC2F12002EA
:100EB000BCF1004F20FA02F243EB020008BF20F021
:100EC0000100704702F1200201FA02FCC2F1200287
:100ED00050EA4C0021FA02F243EB020008BF20EA7C
:100EE000DC7070474FF0FF3C06E000BF4FF0010C94
:100EF00002E000BF4FF0010C4DF804CD4FEA400274
:100F00004FEA41037FEA226C18BF7FEA236C11D0BD
:100F100001B052EA530C18BF90EA010F58BFB2EB70
:100F2000030088BFC81738BF6FEAE17018BF40F0F0
:100F3000010070477FEA226C02D15FEA402C05D1A4
:100F40007FEA236CE4D15FEA412CE1D05DF8040B29
:100F5000704700BF844608466146FFE70FB5FFF7BC
:100F6000C9FF002848BF10F1000F0FBD4DF808ED74
:100F7000FFF7F4FF0CBF012000205DF808FB00BF65
:100F80004DF808EDFFF7EAFF34BF012000205DF8BF
:100F900008FB00BF4DF808EDFFF7E0FF94BF01200C
:100FA00000205DF808FB00BF4DF808EDFFF7D2FF09
:100FB00094BF012000205DF808FB00BF4DF808ED4C
:100FC000FFF7C8FF34BF012000205DF808FB00BF19
:100FD0004FEA40024FEA41037FEA226C02D15FEA06
:100FE000402C08D17FEA236C02D15FEA412C02D168
:100FF0004FF0000070474FF00100704742000ED2E2
:10100000B2F1FE4F0BD34FF09E03B3EB126209D443
:101010004FEA002343F0004323FA02F070474FF0F9
:101020000000704712F1610F01D1420202D14FF06E
:10103000FF3070474FF00000704700BF53B94AB906
:10104000002908BF00281CBF4FF0FF314FF0FF30D0
:1010500000F0ACB9ADF1080C6DE904CE00F03EF83B
:10106000DDF804E0DDE9022304B0704738B5054639
:101070000C462846214600220023FFF74FFD28B9E1
:1010800028462146BDE8384000F00AB8284604F159
:10109000004100F005F8404261EB410138BD00BF5E
:1010A000D0B50C4B002206460F46FFF7C5FAFFF7F6
:1010B0009BFD0446FFF746FA074B0022FFF7BCFAF8
:1010C00002460B4630463946FFF7FEF8FFF78CFD27
:1010D0002146D0BD0000F03D0000F0412DE9F04771
:1010E000089E0D4604468846002B4DD18A42944600
:1010F00068D9B2FA82F252B101FA02F3C2F12001C8
:1011000020FA01F10CFA02FC41EA030894404FEA8C
:101110001C45210CB8FBF5FE1FFA8CF705FB1E835E
:1011200041EA03430EFB07F199420BD91CEB030381
:101130000EF1FF3080F01E81994240F21B81AEF12A
:10114000020E63445B1AA4B2B3FBF5F005FB103347
:1011500044EA034400FB07F7A7420AD91CEB040446
:1011600000F1FF3380F00881A74240F2058164441A
:101170000238E41B40EA0E4000211EB1D440002397
:10118000C6E90043BDE8F0878B4208D9002E00F085
:10119000EE800021C6E900050846BDE8F087B3FAF5
:1011A00083F100294AD1AB4202D3824200F2F98096
:1011B000841A65EB030301209846002EE2D0C6E9AD
:1011C0000048DFE702B9FFDEB2FA82F2002A40F0FF
:1011D0009180A1EB0C054FEA1C471FFA8CFE012100
:1011E000B5FBF7F307FB1350250C45EA00450EFB52
:1011F00003F0A84208D91CEB050503F1FF3802D221
:10120000A84200F2CB8043462D1AA4B2B5FBF7F0FA
:1012100007FB105544EA05440EFB00FEA64508D91D
:101220001CEB040400F1FF3502D2A64500F2BB809E
:101230002846A4EB0E0440EA03409EE7C1F12007D4
:101240008B4022FA07FC4CEA030C20FA07F405FA5B
:1012500001F31C43FD404FEA1C4900FA01F3B5FBC2
:10126000F9F8200C1FFA8CFE09FB185540EA0545D9
:1012700008FB0EF0A84202FA01F20BD91CEB05059F
:1012800008F1FF3A80F08880A84240F28580A8F1FA
:10129000020865442D1AA4B2B5FBF9F009FB1055FC
:1012A00044EA054500FB0EFEAE4508D91CEB0505DA
:1012B00000F1FF346CD2AE456AD90238654440EA89
:1012C0000840A0FB0294A5EB0E05A542C846A64621
:1012D00056D353D05EB1B3EB080265EB0E0505FAA9
:1012E00007F722FA01F3CD401F43C6E9007500213C
:1012F000BDE8F087C2F1200320FA03F10CFA02FCEA
:1013000025FA03F395400D434FEA1C471FFA8CFE64
:10131000B3FBF7F107FB11302B0C43EA004301FB51
:101320000EF0984204FA02F408D91CEB030301F111
:10133000FF382FD298422DD9023963441B1AADB21F
:10134000B3FBF7F007FB103345EA034500FB0EF350
:10135000AB4208D91CEB050500F1FF3816D2AB42B1
:1013600014D902386544ED1A40EA014138E73146A4
:10137000304607E78646E5E61846FAE64B45A9D229
:10138000B9EB020864EB0C0E0138A3E74046EAE72C
:10139000204694E74146D1E7D0467BE7023B6544CF
:1013A00032E7084609E76444023842E7704700BF65
:1013B00090B5CBB002AF07F59073A3F58E731860AC
:1013C00007F59073A3F58E731B68B3F802349BB2D4
:1013D000002B00F0E181642001F0DEFF07F590733F
:1013E000A3F58E73186807F59073A3F58E731B68C9
:1013F000B3F802349BB2734A194600F069FAC7F891
:101400000801D7F80831B3F1FF3F00F0AC81642345
:10141000C7F81C311FE0012001F0BEFFD7F81C31D6
:10142000013BC7F81C31D7F81C31002B13DA07F544
:101430009073A3F58E731B684FF4806200211846E9
:1014400005F0C2FF07F59073A3F58E731B680022A9
:10145000A3F80224A0E107F59073A3F58E73186832
:1014600007F59073A3F58E731B68B3F802349BB233
:10147000554A194600F02CFA0346B3F1FF3FCAD093
:1014800007F14003C8220021184605F09DFFD7F858
:101490000831013307F59072A2F58E721268D418E4
:1014A000D7F80831013307F59072A2F58E721268F1
:1014B00013441846FEF7ACFE03465A1E07F14003DC
:1014C0002146184605F072FF07F14003184600F068
:1014D0008FF93E4A14213E4800F0FAF90346B3F171
:1014E000FF3F49D007F10C033A4A3B49184606F042
:1014F0005DFC0023C7F818316423C7F81431374B5B
:101500001B78002B07D00A220021344807F076FB15
:101510000346C7F81831324B1B78002B0ED00A2235
:1015200000212F4807F06AFB0346C7F81431D7F8AB
:101530001431642B02D96423C7F81431D7F814216D
:10154000D7F81811274806F0A3FBD7F81431DBB2FF
:101550001A46D7F81811012001F02CFA07F10C03F4
:101560001846FEF755FE03469AB207F10C031146E2
:10157000184600F071FB91E01B4A1421144800F05A
:10158000A7F90346B3F1FF3F34D007F10C03114A2A
:101590001649184606F00AFC00220021002001F03E
:1015A00009FA134B00225A6007F10C031846FEF7A4
:1015B0002FFE03469AB207F10C031146184600F0BD
:1015C0004BFB6BE008BA00080CBA000810BA000820
:1015D00010020020FC01002018BA0008240200209C
:1015E0003802002028BA000858BA000860BA00087B
:1015F0008C1300206A4A14216A4800F069F90346F6
:10160000B3F1FF3F4AD00023C7F80C31664B1B787B
:10161000002B07D00A220021634807F0EFFA0346A7
:10162000C7F80C31614B1B78002B1CD0604B01229A
:101630001A7000215D4807F013FAC7F810015D4BDE
:101640001B681946D7F81001FFF7B8FC0346002BBA
:1016500009D06422D7F80C11012001F0ABF9564AE9
:10166000D7F810319360D7F81001FEF78DFF0246CE
:101670000B4607F10C00CDE90023504A504906F013
:1016800095FB07F10C031846FEF7C2FD03469AB21C
:1016900007F10C031146184600F0DEFA142200216F
:1016A000464805F091FE142200213E4805F08CFECC
:1016B000142200213C4805F087FE142200213B48FB
:1016C00005F082FE142200213E4805F07DFE142222
:1016D00000213D4805F078FE142200213B4805F02A
:1016E00073FE142200213A4805F06EFE14220021F8
:1016F000384805F069FE14220021374805F064FEE1
:1017000014220021354805F05FFE142200213448E0
:1017100005F05AFE14220021324805F055FE14222D
:101720000021314805F050FE142200212F4805F019
:101730004BFE07F59073A3F58E73186807F5907349
:10174000A3F58E731B68B3F802349BB21A460021CE
:1017500005F03AFE07F59073A3F58E731B6800221F
:10176000A3F8022418E007F59073A3F58E731868A8
:1017700007F59073A3F58E731B68B3F802349BB220
:101780001A46002105F020FE07F59073A3F58E732D
:101790001B680022A3F8022407F59277BD4690BD8E
:1017A00070BA000810020020240200203802002035
:1017B00084120020801200208C130020FC010020E5
:1017C00078BA00084C020020600200207402002059
:1017D000880200209C020020B0020020C4020020E9
:1017E000D8020020EC020020000300201403002097
:1017F00080B584B000AF78600023FB73134978682C
:1018000000F02AF8B86018E0FB7B0E2B0CD8FA7BAE
:1018100013469B0013449B000D4A1344BA680D49BC
:10182000184606F0C3FA00E000BF0849002000F0A7
:1018300013F8B860FB7B0133FB73BB68002BE3D16B
:1018400000BF00BF1037BD4680BD00BF98BA00087A
:10185000FC0100209CBA000880B584B000AF78601D
:1018600039600023FB607B68002B02D0174A7B683D
:101870001360164B1B68002B01D1002322E0134B91
:101880001B683968184606F0B1FAB860BB68002BCF
:101890000CD0BB6800221A700C4B1B68FB60BB6845
:1018A0000133BB60094ABB6813600AE0074B1B6841
:1018B0001B78002B05D0054B1B68FB60034B0022F7
:1018C0001A60FB6818461037BD4680BD280300200B
:1018D00080B588B000AFF860B9607A607868FEF7CC
:1018E00097FC7861BA687B69D31ABB600023FB61FF
:1018F00021E00023BB610FE0FA69BB6913441A467B
:10190000FB6813441A78BB6979680B441B789A42C8
:1019100007D1BB690133BB61BB697A699A42EBD8D5
:1019200000E000BFBB697A699A4201D1FB6908E017
:10193000FB690133FB61FA69BB689A42D9DD4FF05C
:10194000FF3318462037BD4680BD000080B582B009
:1019500000AF03463960FB71FB79012B20D1364A79
:101960003B681360354B0022A3F80224334B00225E
:10197000A3F80424314B4FF48062A3F8002401F053
:1019800001FD03462D4AC2F80834012000F084F915
:10199000294B1B6801222A49184604F04AFD46E0FB
:1019A000FB79022B20D1274A3B681360264B00228B
:1019B000A3F80224244B0022A3F80424224B4FF462
:1019C0008062A3F8002401F0DDFC03461E4AC2F841
:1019D0000834022000F060F91A4B1B6801221B49F1
:1019E000184604F026FD22E0FB79032B1FD1184A8C
:1019F0003B681360174B0022A3F80224154B00220A
:101A0000A3F80424134B4FF48062A3F8002401F0E0
:101A1000B9FC03460F4AC2F80834032000F03CF931
:101A20000B4B1B6801220C49184604F002FD00BF55
:101A30000837BD4680BD00BF2C0300203C030020BA
:101A4000380300203003002048070020390300201D
:101A500034030020540B00203A03002080B582B0EC
:101A600000AF78607B681B6C042B05D1786801F0AF
:101A7000ADFB786801F0E0FA7B681B681C4A934272
:101A80000DD11C4B1B6801221B49184604F0D1FCE8
:101A900001F078FC0346194AC2F8083424E07B6858
:101AA0001B68174A93420DD1164B1B680122164939
:101AB000184604F0BEFC01F065FC0346134AC2F868
:101AC000083411E07B681B68114A93420CD1114B1A
:101AD0001B6801221049184604F0ABFC01F052FCCF
:101AE00003460E4AC2F8083400BF0837BD4680BD21
:101AF000001401402C030020380300203C03002088
:101B00000010014030030020390300204807002066
:101B100000440040340300203A030020540B00200E
:101B200080B582B000AF78607B681B68294A934219
:101B300019D101222021284803F02AF8274B1B78CD
:101B4000DBB21946264800F05FF8264B1B680122DD
:101B50002249184604F06DFC01F014FC0346204AAB
:101B6000C2F8083432E07B681B681F4A934214D1E4
:101B70001E4B1B78DBB219461D4800F045F81D4B83
:101B80001B6801221949184604F053FC01F0FAFBC6
:101B90000346174AC2F8083418E07B681B68164AE7
:101BA000934213D1154B1B78DBB21946144800F051
:101BB0002BF8144B1B6801221049184604F039FC1D
:101BC00001F0E0FB03460A4AC2F8083400BF0837B8
:101BD000BD4680BD001401400004024038030020CF
:101BE0003C0300202C03002000100140390300209A
:101BF0004807002030030020004400403A03002042
:101C0000540B00203403002080B483B000AF786010
:101C10000B46FB707B68B3F802349BB219467B68B5
:101C2000FA785A547B68B3F802349BB201339AB203
:101C30007B68A3F802247B68B3F802349BB2B3F547
:101C4000806F03D37B680022A3F8022400BF0C3707
:101C5000BD4680BC7047000080B582B000AF7860A0
:101C60000B467B8001224021094802F091FF094B7D
:101C700018687A884FF47A73796804F048FB002278
:101C80004021034802F084FF00BF0837BD4680BDF5
:101C9000000402402C03002080B582B000AF034650
:101CA000FB71FB79032B24D0032B31DC012B02D0F9
:101CB000022B0FD02CE04FF480620021174805F072
:101CC00083FB164B0022A3F80224144B0022A3F836
:101CD00004241EE04FF480620021114805F074FBDB
:101CE0000F4B0022A3F802240D4B0022A3F804247A
:101CF0000FE04FF4806200210A4805F065FB094BB4
:101D00000022A3F80224074B0022A3F8042400E0D9
:101D100000BF00BF0837BD4680BD00BF3C030020A8
:101D200048070020540B002080B584B000AF3B462C
:101D300000221A605A609A60DA60364B364A1A609E
:101D4000344B4FF400325A60324B00229A60314BD0
:101D500001221A612F4B01221A762E4B002283F8A2
:101D600020202C4B0022DA622A4B2C4A9A62294B03
:101D70000022DA60274B0422DA61264B012283F825
:101D80003020244B01225A61224801F029FB0346EE
:101D9000002B01D000F06AFD0A233B6001237B6029
:101DA0000623BB603B4619461A4801F07FFC0346F8
:101DB000002B01D000F05AFD0B233B6002237B6017
:101DC0003B461946134801F071FC0346002B01D035
:101DD00000F04CFD0C233B6003237B603B4619461F
:101DE0000C4801F063FC0346002B01D000F03EFDDF
:101DF00011233B6004237B603B461946054801F0F4
:101E000055FC0346002B01D000F030FD00BF103719
:101E1000BD4680BD600F0020002001400100000F82
:101E200080B58AB000AF786007F1140300221A6011
:101E30005A609A60DA601A617B681B682F4A934285
:101E400058D100233B612E4B5B6C2D4A43F48073C9
:101E500053642B4B5B6C03F480733B613B69002341
:101E6000FB60274B1B6B264A43F004031363244B90
:101E70001B6B03F00403FB60FB6807237B610323F8
:101E8000BB610023FB6107F1140319461D4802F0F2
:101E9000FBFB1D4B1D4A1A601B4B00225A601A4B5C
:101EA00000229A60184B0022DA60174B4FF48062D0
:101EB0001A61154B4FF480525A61134B4FF4804214
:101EC0009A61114B4FF48072DA610F4B4FF400327C
:101ED0001A620D4B00225A620B4801F0D7FF0346ED
:101EE000002B01D000F0C2FC7B68074A9A63064AC7
:101EF0007B68936300BF2837BD4680BD002001404A
:101F00000038024000080240A80F00201064024080
:101F100080B582B000AF00237B600C4B1B6B0B4A7B
:101F200043F480031363094B1B6B03F480037B6052
:101F30007B6800220021382001F063FF382001F087
:101F40007CFF00BF0837BD4680BD00BF003802409F
:101F500080B588B000AF07F10C0300221A605A6008
:101F60009A60DA601A610023BB603A4B1B6B394AF6
:101F700043F004031363374B1B6B03F00403BB6094
:101F8000BB6800237B60334B1B6B324A43F0010379
:101F90001363304B1B6B03F001037B607B680023F2
:101FA0003B602C4B1B6B2B4A43F002031363294B02
:101FB0001B6B03F002033B603B68002248F61001F4
:101FC000254802F0E5FD00221021244802F0E0FD42
:101FD0000022F021224802F0DBFD48F61003FB60EE
:101FE00001233B6100237B610023BB6107F10C03EC
:101FF0001946194802F048FB1023FB6001233B619E
:1020000000237B610023BB6107F10C0319461348D1
:1020100002F03AFB48F20103FB6000233B6100231E
:102020007B6107F10C0319460D4802F02DFBF023EC
:10203000FB6001233B6100237B610023BB6107F14F
:102040000C031946064802F01FFB00BF2037BD46AF
:1020500080BD00BF0038024000000240000802407E
:1020600000040240000000002DE9B04388B004AF36
:1020700001F024F900F0F4F8FFF76AFF00F046FDE4
:1020800000F05CFF00F084FFFFF742FF00F0F8FE75
:1020900000F0A8FFFFF748FE5F490120FFF756FC5C
:1020A0005E490220FFF752FC5D490320FFF74EFC1A
:1020B0005C4803F01BFE0023FB60012210215A48FC
:1020C00002F066FD642001F067F9002210215648F5
:1020D00002F05EFD00224FF40041544802F058FD2A
:1020E00004225349534801F0BFF9642001F054F928
:1020F0000023FB7204E000F07FF9FB7A0133FB72EE
:10210000FB7A642BF7D900F077F900F0FDF903466C
:10211000494A136000F098FA0346484A136000F0F9
:10212000D3FA0346464A136000F00EFC4548FFF719
:102130003FF94549454805F071FE78607B68002B02
:1021400036D0322001F028F97B6806330A220021BC
:10215000184606F053FD03463B603868FEF76AFEFA
:1021600003461846FEF710FA29A3D3E90023FEF729
:10217000ABF802460B46104619464FF00002344BAE
:10218000FEF784FB02460B4610461946FEF74CFD4F
:102190000346304A13602F4B1B681846FEF7F4F9CC
:1021A00002460B462C4805F073FD0320FFF774FD33
:1021B00001F0E8F80246FB68D31AB3F57A7F20D91C
:1021C0001F4B1B681846FEF7DFF9804689461B4BFC
:1021D0001B681846FEF7D8F904460D46164B1B68D7
:1021E0001846FEF7D1F902460B46CDE90223CDE9A8
:1021F000004542464B46194805F04AFD01F0C2F839
:10220000F86000F0ADFA00F0F3FA7CE7AFF300807D
:10221000000000000058A540D814002050140020F1
:102220009414002008140020000402400000024022
:102230009C130020600F00207412002078120020F0
:102240007C1200203C030020A0BA0008540B0020A0
:102250000000244080120020A8BA0008BCBA000880
:1022600080B594B000AF07F11C033422002118465A
:1022700005F0AAF807F1080300221A605A609A6074
:10228000DA601A6100237B602C4B1B6C2B4A43F0F5
:1022900080531364294B1B6C03F080537B607B6875
:1022A00000233B60264B1B68254A43F440431360E0
:1022B000234B1B6803F440433B603B680223FB61F4
:1022C0000123BB621023FB6202237B630023BB63F9
:1022D0000823FB63B4233B6402237B640223BB64B7
:1022E0000223FB6407F11C03184602F081FF03463A
:1022F000002B01D000F0BAFA02F062FC0346002B7A
:1023000001D000F0B3FA0F23BB600223FB6000236F
:102310003B614FF4A0537B614FF48053BB6107F1E5
:1023200008030521184602F09BFC0346002B01D050
:1023300000F09CFA00BF5037BD4680BD0038024017
:102340000070004090B583B000AF78607B681E4A93
:10235000934234D1002220211C4802F019FC1C4B6E
:102360001B78012B2BD11B4B1B681B4A146818468A
:10237000FEF744FE0346DAB2184B1A55164B1B689B
:102380000133154A1360144B1B68FA2B17D9134BF2
:1023900093F8F930DBB21A46104B1B78DBB2D31A34
:1023A000042B03DD0E4B00221A7002E00C4B1E22A0
:1023B0001A70074B00221A70074B00221A6000BFE8
:1023C0000C37BD4690BD00BF081400200004024039
:1023D0008412002080120020841300208812002024
:1023E0008813002080B483B000AF786000BF0C3742
:1023F000BD4680BC7047000090B484B000AF3B463F
:1024000000221A605A609A603A4B1B78632B3AD9C3
:10241000384B00221A700023BB7331E00023FB739A
:1024200028E0BB7B9B0010333B4453F8101CFA7B25
:10243000B87B314C13465B001344034434F813302B
:102440001A46BB7B0A449B0010333B4443F8102CD4
:10245000BB7B9B0010333B4453F8102CFB7B0133B8
:102460001946BB7BB2FBF1F2244941F82320FB7BE8
:102470000133FB73FB7B632BD3D9BB7B0133BB7372
:10248000BB7B022BCAD91E4B1A681A4B1B78194604
:1024900090B2194A0B465B000B445B0013440246A2
:1024A0001A80174B5A68134B1B78194690B2124A80
:1024B0000B465B000B445B001344023302461A8058
:1024C0000F4B9A680B4B1B78194690B20A4A0B4681
:1024D0005B000B445B001344043302461A80054B37
:1024E0001B780133DAB2034B1A7000BF1037BD46B8
:1024F00090BC704760120020081000206412002079
:102500009C13002000000000B0B584B000AF4FF075
:102510000003FB604FF00003BB604FF000037B60E3
:10252000454B9B681846FEF785FC03461846FEF7A8
:102530002BF837A3D3E90023FEF77EF802460B46BB
:102540001046194634A3D3E90023FEF79FF902464B
:102550000B46104619464FF00002384BFEF796F92D
:1025600002460B4610461946FEF75EFB0346BB606B
:10257000B868FEF709F82AA3D3E90023FEF786F925
:1025800002460B461046194627A3D3E90023FEF75F
:1025900053F802460B4614461D46B868FDF7F4FF93
:1025A0001FA3D3E90023FEF771F902460B4618A1D9
:1025B000D1E90001FDF788FE02460B462046294678
:1025C000FEF764F902460B4610461946FEF72CFB4F
:1025D00003467B607868FDF7D7FF4FF00002184B89
:1025E000FDF772FE02460B461046194610A3D3E9CA
:1025F0000023FEF74BF902460B4610461946FEF73C
:1026000013FB0346FB60FB6818461037BD46B0BDA0
:102610000E2DB29DEFA70A40E17A14AE476110403B
:102620006666666666E651400000000000DBFA4020
:10263000333333333333FB3F6412002000408F4089
:1026400000407F400000000080B582B000AF4FF036
:1026500000037B601A4B5B681846FEF7EBFB0346F2
:102660001846FDF791FF4FF00002164BFDF7E4FF0F
:1026700002460B46104619460DA3D3E90023FDF789
:10268000DBFF02460B46104619460BA3D3E9002395
:10269000FEF7FCF802460B4610461946FEF7C4FA50
:1026A00003467B607B6818460837BD4680BD00BF87
:1026B0000E2DB29DEFA70A400000000000FEAF40C3
:1026C000641200200000264080B582B000AF4FF0B9
:1026D00000037B60204B1B681846FEF7ABFB0346EC
:1026E0001846FDF751FF16A3D3E90023FDF7A4FF19
:1026F00002460B461046194613A3D3E90023FEF702
:10270000C5F802460B46104619464FF00002134B1F
:10271000FEF7BCF802460B46104619460CA3D3E957
:102720000023FEF7B3F802460B4610461946FEF7A3
:102730007BFA03467B607B6818460837BD4680BD40
:102740000E2DB29DEFA70A400000000000FEAF4032
:102750007B14AE47E17A743F6412002000003940D8
:1027600080B500AFFFF7D0FE03461C491846FEF7C0
:102770001BFC0346002B21D0194B1B78002B1DD1CD
:10278000002301220121002000F076F8642000F0EF
:1027900003FE00224FF40041124802F0F9F9022032
:1027A00000F070F9002280210F4802F0F1F90F4883
:1027B00005F0F4FA0A4B01221A700DE0FFF7A4FEAF
:1027C000034606491846FEF7DBFB0346002B00D103
:1027D00002E0034B00221A7000BF80BD0000964249
:1027E000701200200000024000040240FCBA000801
:1027F00080B500AF184B1B68B3F5677F21D9174B25
:102800001B78002B1DD1002301220121002000F0A4
:1028100033F8642000F0C0FD00224FF4004110485E
:1028200002F0B6F9022000F02DF9002280210D48B7
:1028300002F0AEF90C4805F0B1FA084B01221A700B
:1028400007E0054B1B68B3F5677F02D8034B0022F6
:102850001A7000BF80BD00BF9C13002071120020C1
:10286000000002400004024038BB000880B400AF02
:1028700072B600BFFEE7000090B583B000AF04461B
:10288000084611461A462346FB710346BB710B46A8
:102890007B7113467B80274A53786FF3C7135370BD
:1028A000FB7903F00103D9B2224A537861F386130E
:1028B0005370BB7903F00103D9B21E4A537861F318
:1028C000451353707B7903F00103D9B2194A537849
:1028D00061F3041353707B88C3F30B0399B2154A59
:1028E000138861F30B03138000221021124802F0B9
:1028F0004FF90A2000F050FD642301220F491048CF
:1029000002F09DFF642301220A490D4802F097FF5F
:102910000A2000F041FD01221021074802F038F999
:1029200000221021074802F033F900BF0C37BD46E2
:1029300090BD00BF981300200000024099130020B2
:10294000AC1300200008024080B500AF164B5B6856
:10295000002B27D000F016FD0246134B1B68D21A3D
:10296000114B5B689A421DD30023012201210020F4
:10297000FFF782FF642000F00FFD00224FF40041BA
:102980000A4802F005F900228021094802F000F906
:10299000022000F077F8044B00225A60024B4FF0FF
:1029A00000029A6000BF80BD8C130020000002402E
:1029B0000004024080B582B000AF03463960FB716D
:1029C0001346BB713B68002B3ED03B68B3F1FF3F21
:1029D0000AD000F0D7FC0346264A1360254A3B681C
:1029E0005360012000F04EF801228021224802F0BD
:1029F000CFF8BB7940F2276202FB03F31F4A82FB48
:102A000003125211DB17D31A9BB203F520739BB24A
:102A1000012201210020FFF72FFF642000F0BCFC01
:102A2000FB79002B09D100224FF40041144802F039
:102A3000AFF8022000F026F817E001224FF4004121
:102A40000F4802F0A5F810E0FB79002B0DD1002211
:102A50004FF400410A4802F09BF8022000F012F8FF
:102A600000228021044802F093F800BF0837BD46D9
:102A700080BD00BF8C130020000402401F85EB5175
:102A80000000024080B582B000AF0346FB71FB79C5
:102A9000012B1DD1012210211B4802F079F864207E
:102AA00000F07AFC00221021174802F071F864202F
:102AB00000F072FC01221021134802F069F8642032
:102AC00000F06AFC002210210F4802F061F816E0C5
:102AD000FB79022B0ED1012210210B4802F058F88D
:102AE0004FF47A7000F058FC00221021064802F0E2
:102AF0004FF804E000221021034802F049F800BF1B
:102B00000837BD4680BD00BF0004024080B500AF5D
:102B1000174B184A1A60164B4FF482725A60144BC6
:102B200000229A60124B0022DA60114B00221A61D7
:102B30000F4B00225A610E4B4FF400729A610C4BFE
:102B40000022DA610A4B00221A62094B00225A6203
:102B5000074B00229A62064B0A22DA62044802F00E
:102B6000E5FD0346002B01D0FFF780FE00BF80BDCE
:102B7000AC1300200030014080B58AB000AF78600F
:102B800007F1140300221A605A609A60DA601A6131
:102B90007B681B68194A93422BD100233B61184B79
:102BA0005B6C174A43F480535364154B5B6C03F41E
:102BB00080533B613B690023FB60114B1B6B104A48
:102BC00043F0010313630E4B1B6B03F00103FB6027
:102BD000FB68A0237B610223BB610023FB6103230D
:102BE0003B6205237B6207F114031946054801F097
:102BF0004BFD00BF2837BD4680BD00BF00300140FF
:102C0000003802400000024080B483B000AF0023CF
:102C10007B600F4B5B6C0E4A43F4804353640C4B58
:102C20005B6C03F480437B607B6800233B60084B54
:102C30001B6C074A43F080531364054B1B6C03F075
:102C400080533B603B6800BF0C37BD4680BC70477B
:102C50000038024080B400AFFEE780B400AFFEE76A
:102C600080B400AFFEE780B400AFFEE780B400AFF1
:102C7000FEE780B400AF00BFBD4680BC704780B4A3
:102C800000AF00BFBD4680BC704780B400AF00BF3E
:102C9000BD4680BC704780B500AF00F061FB00BF4F
:102CA00080BD000080B500AF024803F0F3FB00BF19
:102CB00080BD00BF5014002080B500AF024803F073
:102CC000E9FB00BF80BD00BF9414002080B500AFB9
:102CD000024803F079F800BF80BD00BF081400204F
:102CE00080B500AF024801F069FA00BF80BD00BFA7
:102CF000A80F002080B500AF024803F0CBFB00BF57
:102D000080BD00BFD814002080B400AF0123184656
:102D1000BD4680BC704780B582B000AF7860396036
:102D200004F01AFB034616221A604FF0FF331846D0
:102D30000837BD4680BD80B582B000AF78604FF0E7
:102D4000FF317868FFF7E7FFFEE780B586B000AF98
:102D5000F860B9607A6000237B610AE0AFF300801D
:102D60000146BB685A1CBA60CAB21A707B6901334B
:102D70007B617A697B689A42F0DB7B68184618377A
:102D8000BD4680BD80B584B000AFF860B9607A60A0
:102D90007B689BB21946B868FEF75EFF7B681846F1
:102DA0001037BD4680BD80B483B000AF78604FF06F
:102DB000FF3318460C37BD4680BC704780B483B0E3
:102DC00000AF786039603B684FF400525A600023CE
:102DD00018460C37BD4680BC704780B483B000AF46
:102DE0007860012318460C37BD4680BC704780B41C
:102DF00085B000AFF860B9607A60002318461437D8
:102E0000BD4680BC7047000080B586B000AF7860DA
:102E1000144A154BD31A7B617B693B61134B1B68CA
:102E2000002B02D1114B124A1A60104B1A687B68B2
:102E300013443A699A4207D204F08EFA03460C22F0
:102E40001A604FF0FF3309E0084B1B68FB60074B2B
:102E50001A687B681344054A1360FB6818461837E4
:102E6000BD4680BD000002200004000004140020C4
:102E70003015002080B400AF00BFBD4680BC704755
:102E800080B582B000AF3B4600221A605A60154BF5
:102E9000154A1A60134B4FF4E1625A60114B00223D
:102EA0009A60104B4FF47A72DA600E4B80229A616E
:102EB0000C4802F0CBFE0346002B01D0FFF7D6FCF6
:102EC00000233B6000237B603B461946054803F026
:102ED00045F90346002B01D0FFF7C8FC00BF0837B7
:102EE000BD4680BD081400200010004080B584B0AD
:102EF00000AF78607B681B680E4A934215D10023AF
:102F0000FB600D4B1B6C0C4A43F0100313640A4B1F
:102F10001B6C03F01003FB60FB68002200213620CD
:102F200000F06FFF362000F088FF00BF1037BD466D
:102F300080BD00BF001000400038024080B500AFE7
:102F4000114B124A1A60104B4FF4E1325A600E4B8B
:102F500000229A600C4B0022DA600B4B00221A61AF
:102F6000094B0C225A61084B00229A61064B002241
:102F7000DA61054803F07EF90346002B01D0FFF724
:102F800075FC00BF80BD00BF501400200010014040
:102F900080B500AF114B124A1A60104B4FF4E1326A
:102FA0005A600E4B00229A600C4B0022DA600B4BE9
:102FB00000221A61094B0C225A61084B00229A61C7
:102FC000064B0022DA61054803F054F90346002B52
:102FD00001D0FFF74BFC00BF80BD00BF9414002060
:102FE0000044004080B500AF114B124A1A60104BEC
:102FF0004FF4E1325A600E4B00229A600C4B0022D3
:10300000DA600B4B00221A61094B0C225A61084B03
:1030100000229A61064B0022DA61054803F02AF982
:103020000346002B01D0FFF721FC00BF80BD00BF8D
:10303000D81400200014014080B58EB000AF786035
:1030400007F1240300221A605A609A60DA601A615C
:103050007B681B68574A934235D100233B62564B2D
:103060005B6C554A43F010035364534B5B6C03F0A5
:1030700010033B623B6A0023FB614F4B1B6B4E4AC4
:1030800043F0010313634C4B1B6B03F00103FB6123
:10309000FB694FF4C0637B620223BB620023FB62C7
:1030A00003233B6307237B6307F12403194643484B
:1030B00001F0EAFA00220021252000F0A2FE2520DE
:1030C00000F0BBFE72E07B681B683D4A934234D13E
:1030D0000023BB61384B1B6C374A43F40033136445
:1030E000354B1B6C03F40033BB61BB6900237B6170
:1030F000314B1B6B304A43F0010313632E4B1B6BA8
:1031000003F001037B617B690C237B620223BB62BA
:103110000023FB6203233B6307237B6307F1240344
:103120001946264801F0B0FA00220021262000F0BE
:1031300068FE262000F081FE38E07B681B68214A8B
:10314000934233D100233B611B4B5B6C1A4A43F023
:1031500020035364184B5B6C03F020033B613B6915
:103160000023FB60144B1B6B134A43F004031363EF
:10317000114B1B6B03F00403FB60FB68C0237B62F5
:103180000223BB620023FB6203233B6308237B63B0
:1031900007F1240319460C4801F076FA00220021B9
:1031A000472000F02EFE472000F047FE00BF3837D2
:1031B000BD4680BD001001400038024000000240C2
:1031C00000440040001401400008024080B582B075
:1031D00000AF78607B681B681D4A93420ED11D4B7F
:1031E0005B6C1C4A23F0100353644FF4C0611A480F
:1031F00001F0DCFB252000F02EFE24E07B681B683C
:10320000164A93420DD1134B1B6C124A23F4003320
:1032100013640C21104801F0C9FB262000F01BFEAE
:1032200011E07B681B680E4A93420CD1094B5B6C22
:10323000084A23F020035364C0210A4801F0B6FB7A
:10324000472000F008FE00BF0837BD4680BD00BF24
:1032500000100140003802400000024000440040DD
:103260000014014000080240DFF834D00D480E4938
:103270000E4A002302E0D458C4500433C4188C42D0
:10328000F9D30B4A0B4C002301E013600432A24235
:10329000FBD3FFF7EFFD04F065F8FEF7E5FE70479E
:1032A0000000022000000020E00100203CC00008D7
:1032B000E001002030150020FEE7000080B500AFDF
:1032C0000E4B1B680D4A43F4007313600B4B1B68D5
:1032D0000A4A43F480631360084B1B68074A43F4AF
:1032E00080731360032000F081FD0F2000F008F8C8
:1032F000FFF78AFC0023184680BD00BF003C024057
:1033000080B582B000AF7860124B1A68124B1B7800
:1033100019464FF47A73B3FBF1F3B2FBF3F318469B
:1033200000F0A7FD0346002B01D001230EE07B68CF
:103330000F2B0AD8002279684FF0FF3000F061FDB2
:10334000064A7B681360002300E001231846083713
:10335000BD4680BD000000200800002004000020C1
:1033600080B400AF054B1B781A46054B1B6813440D
:10337000034A136000BFBD4680BC704708000020B0
:103380001C15002080B400AF024B1B681846BD46D8
:1033900080BC70471C15002080B584B000AF7860F9
:1033A000FFF7F0FFB8607B68FB60FB68B3F1FF3F9D
:1033B00005D00A4B1B781A46FB681344FB6000BF1C
:1033C000FFF7E0FF0246BB68D31AFA689A42F7D8C3
:1033D00000BF00BF1037BD4680BD00BF0800002001
:1033E00080B584B000AF78600023FB737B68002B4E
:1033F00001D1012333E07B681B6C002B09D1786875
:10340000FEF70EFD7B6800225A647B68002283F879
:103410003C207B681B6C03F01003002B18D17B68E9
:103420001B6C23F4885323F0020343F002027B68F1
:103430001A64786800F06CFA7B6800225A647B6832
:103440001B6C23F0030343F001027B681A6401E064
:103450000123FB737B68002283F83C20FB7B18462A
:103460001037BD4680BD000080B586B000AFF86063
:10347000B9607A6000233B61FB6893F83C30012B14
:1034800001D10223E9E0FB68012283F83C20FB68BC
:103490001B689B6803F00103012B18D0FB681B68B5
:1034A0009A68FB681B6842F001029A606D4B1B68CA
:1034B0006D4AA2FB03239A0C13465B0013443B6145
:1034C00002E03B69013B3B613B69002BF9D1FB68A2
:1034D0001B689B6803F48073B3F5807F07D1FB689A
:1034E0001B689A68FB681B6822F480729A60FB680C
:1034F0001B689B6803F00103012B40F0A180FB686F
:103500001B6C23F4E06323F0010343F48072FB6837
:103510001A64FB681B685B6803F48063002B07D0A8
:10352000FB681B6C23F4405343F48052FB681A641D
:10353000FB681B6C03F48053B3F5805F06D1FB6816
:103540005B6C23F00602FB685A6402E0FB68002211
:103550005A64FB68002283F83C20444B7B61FB6883
:103560009B6B434ADA63FB689B6B424A1A64FB68B5
:103570009B6B414ADA64FB681B686FF022021A6099
:10358000FB681B685A68FB681B6842F080625A60DF
:10359000FB681B689A68FB681B6842F480729A603B
:1035A000FB68986BFB681B684C331946BA687B68EC
:1035B00000F01AFD7B695B6803F01F03002B2AD122
:1035C000FB681B682D4A934215D0FB681B682C4A88
:1035D000934205D1254B5B6803F01F03002B0AD0F3
:1035E000FB681B68274A934236D1204B5B6803F087
:1035F0001003002B30D1FB681B689B6803F040531D
:10360000002B29D1FB681B689A68FB681B6842F095
:1036100080429A6020E0FB681B68184A93421BD1E5
:10362000FB681B689B6803F04053002B14D1FB68B8
:103630001B689A68FB681B6842F080429A600BE046
:10364000FB681B6C43F01002FB681A64FB685B6C40
:1036500043F00102FB685A64002318461837BD4640
:1036600080BD00BF0000002083DE1B43002301401B
:10367000093B0008C33B0008DF3B00080020014075
:10368000002101400022014080B483B000AF786087
:1036900000BF0C37BD4680BC704780B483B000AF1C
:1036A000786000BF0C37BD4680BC704780B485B0E1
:1036B00000AF786039600023BB607B6893F83C30D2
:1036C000012B01D1022313E17B68012283F83C2006
:1036D0003B681B68092B25D97B681B68D9683B6848
:1036E0001B689BB21A4613465B0013441E3B07221D
:1036F00002FA03F3DA437B681B680A40DA607B68EE
:103700001B68D9683B689A683B681B689BB218467F
:1037100003465B0003441E3B9A407B681B680A43D8
:10372000DA6022E07B681B6819693B681B689BB202
:103730001A4613465B001344072202FA03F3DA43E6
:103740007B681B680A401A617B681B6819693B68C3
:103750009A683B681B689BB2184603465B000344AB
:103760009A407B681B680A431A613B685B68062BBA
:1037700024D87B681B68596B3B685A6813469B00CA
:103780001344053B1F2202FA03F3DA437B681B68EC
:103790000A405A637B681B68596B3B681B689BB285
:1037A00018463B685A6813469B001344053B00FAD1
:1037B00003F27B681B680A435A634CE03B685B6812
:1037C0000C2B24D87B681B68196B3B685A6813461E
:1037D0009B001344233B1F2202FA03F3DA437B6866
:1037E0001B680A401A637B681B68196B3B681B687F
:1037F0009BB218463B685A6813469B001344233B10
:1038000000FA03F27B681B680A431A6323E07B68B3
:103810001B68D96A3B685A6813469B001344413BB6
:103820001F2202FA03F3DA437B681B680A40DA625C
:103830007B681B68D96A3B681B689BB218463B686B
:103840005A6813469B001344413B00FA03F27B681D
:103850001B680A43DA62294BFB607B681B68284AB5
:1038600093420FD13B681B68122B0BD1FB685B683E
:1038700023F40002FB685A60FB685B6843F4800233
:10388000FB685A607B681B681D4A93422BD13B68DA
:103890001B681C4A934203D03B681B68112B22D142
:1038A000FB685B6823F48002FB685A60FB685B6816
:1038B00043F40002FB685A603B681B68114A93425C
:1038C00011D1114B1B68114AA2FB03239A0C13461A
:1038D0009B0013445B00BB6002E0BB68013BBB6024
:1038E000BB68002BF9D17B68002283F83C200023C1
:1038F00018461437BD4680BC704700BF0023014006
:1039000000200140120000100000002083DE1B4355
:1039100080B485B000AF7860794BFB60FB685B6872
:1039200023F44032FB685A60FB685A687B685B6826
:103930001A43FB685A607B681B685A687B681B687F
:1039400022F480725A607B681B6859687B681B6927
:103950001A027B681B680A435A607B681B685A68B6
:103960007B681B6822F040725A607B681B6859684C
:103970007B689A687B681B680A435A607B681B688F
:103980009A687B681B6822F400629A607B681B68F7
:1039900099687B68DA687B681B680A439A607B6871
:1039A0009B6A584A934222D07B681B689A687B685E
:1039B0001B6822F070629A607B681B6899687B685C
:1039C0009A6A7B681B680A439A607B681B689A68DE
:1039D0007B681B6822F040529A607B681B6899687C
:1039E0007B68DA6A7B681B680A439A600FE07B6831
:1039F0001B689A687B681B6822F070629A607B681B
:103A00001B689A687B681B6822F040529A607B684A
:103A10001B689A687B681B6822F002029A607B68C8
:103A20001B6899687B681B7E5A007B681B680A4389
:103A30009A607B6893F82030002B1BD07B681B6852
:103A40005A687B681B6842F400625A607B681B6896
:103A50005A687B681B6822F460425A607B681B6866
:103A600059687B685B6A013B5A037B681B680A43A1
:103A70005A6007E07B681B685A687B681B6822F401
:103A800000625A607B681B68DA6A7B681B6822F4F4
:103A90007002DA627B681B68D96A7B68DB69013B6C
:103AA0001A057B681B680A43DA627B681B689A68A0
:103AB0007B681B6822F400729A607B681B689968B7
:103AC0007B6893F830305A027B681B680A439A601F
:103AD0007B681B689A687B681B6822F480629A6026
:103AE0007B681B6899687B685B699A027B681B68C6
:103AF0000A439A6000BF1437BD4680BC704700BFC0
:103B0000002301400100000F80B584B000AF786051
:103B10007B689B6BFB60FB681B6C03F05003002B06
:103B20003CD1FB681B6C43F40072FB681A64FB68B1
:103B30001B689B6803F04053002B2BD1FB681B7E56
:103B4000002B27D1FB681B68DB6A03F47003002B92
:103B500006D0FB681B689B6803F48063002B19D1B7
:103B6000FB681B685A68FB681B6822F020025A60D9
:103B7000FB681B6C23F48072FB681A64FB681B6C87
:103B800003F48053002B05D1FB681B6C43F001024A
:103B9000FB681A64F868FEF725FC0EE0FB681B6CF6
:103BA00003F01003002B03D0F868FFF776FD04E064
:103BB000FB689B6BDB6C7868984700BF1037BD468D
:103BC00080BD80B584B000AF78607B689B6BFB6084
:103BD000F868FFF759FD00BF1037BD4680BD80B5BE
:103BE00084B000AF78607B689B6BFB60FB68402211
:103BF0001A64FB685B6C43F00402FB685A64F86863
:103C0000FFF74BFD00BF1037BD4680BD80B485B0C7
:103C100000AF78607B6803F00703FB600C4BDB6848
:103C2000BB60BA684FF6FF031340BB60FB681A0223
:103C3000BB68134343F0BF6343F40033BB60044AE3
:103C4000BB68D36000BF1437BD4680BC704700BF5F
:103C500000ED00E080B400AF044BDB681B0A03F00A
:103C600007031846BD4680BC704700BF00ED00E06A
:103C700080B483B000AF0346FB7197F90730002B87
:103C80000BDBFB7903F01F02064997F907305B094C
:103C9000012000FA02F241F8232000BF0C37BD4694
:103CA00080BC704700E100E080B483B000AF034601
:103CB000FB7197F90730002B12DBFB7903F01F0231
:103CC0000A4997F907305B09012000FA02F2203314
:103CD00041F82320BFF34F8F00BFBFF36F8F00BFAA
:103CE00000BF0C37BD4680BC704700BF00E100E05C
:103CF00080B483B000AF03463960FB7197F9073099
:103D0000002B0ADB3B68DAB20C4997F90730120145
:103D1000D2B20B4483F800230AE03B68DAB20849C8
:103D2000FB7903F00F03043B1201D2B20B441A7665
:103D300000BF0C37BD4680BC704700BF00E100E00B
:103D400000ED00E080B489B000AFF860B9607A603F
:103D5000FB6803F00703FB61FB69C3F10703042B56
:103D600028BF0423BB61FB690433062B02D9FB691E
:103D7000033B00E000237B614FF0FF32BB6902FA96
:103D800003F3DA43BB681A407B699A404FF0FF3176
:103D90007B6901FA03F3D9437B680B401343184650
:103DA0002437BD4680BC704780B582B000AF7860D4
:103DB0007B68013BB3F1807F01D301230FE00A4A06
:103DC0007B68013B53600F214FF0FF30FFF790FFFE
:103DD000054B00229A60044B07221A600023184604
:103DE0000837BD4680BD00BF10E000E080B582B05E
:103DF00000AF78607868FFF709FF00BF0837BD465D
:103E000080BD80B586B000AF0346B9607A60FB73B1
:103E100000237B61FFF71EFF78617A68B9687869D3
:103E2000FFF790FF024697F90F3011461846FFF74B
:103E30005FFF00BF1837BD4680BD80B582B000AFC0
:103E40000346FB7197F907301846FFF711FF00BFD3
:103E50000837BD4680BD80B582B000AF0346FB7118
:103E600097F907301846FFF71FFF00BF0837BD4618
:103E700080BD80B582B000AF78607868FFF794FFAE
:103E8000034618460837BD4680BD000080B586B0A1
:103E900000AF786000237B61FFF774FA38617B68BC
:103EA000002B01D1012399E07B68022283F83520A1
:103EB0007B68002283F834207B681B681A687B6863
:103EC0001B6822F001021A600FE0FFF75BFA02465E
:103ED0003B69D31A052B08D97B6820225A657B6879
:103EE000032283F83520032378E07B681B681B6876
:103EF00003F00103002BE8D17B681B681B687B6122
:103F00007A69384B13407B617B685A687B689B6891
:103F10001A437B68DB681A437B681B691A437B681A
:103F20005B691A437B689B691A437B68DB691A43A8
:103F30007B681B6A13437A6913437B617B685B6A06
:103F4000042B07D17B68DA6A7B681B6B13437A69A1
:103F500013437B617B681B687A691A607B681B6806
:103F60005B697B617B6923F007037B617B685B6A2C
:103F70007A6913437B617B685B6A042B17D17B688A
:103F80009B6A7A6913437B617B68DB6A002B0ED0E6
:103F9000786800F0FFFA0346002B08D07B684022C7
:103FA0005A657B68012283F83520012316E07B687F
:103FB0001B687A695A61786800F0B8FA0346FB60BA
:103FC0007B68DB6D3F229A40FB689A607B68002229
:103FD0005A657B68012283F835200023184618377C
:103FE000BD4680BD3F8010F080B586B000AFF86060
:103FF000B9607A603B600023FB75FB689B6D3B6199
:10400000FB6893F83430012B01D1022340E0FB68B8
:10401000012283F83420FB6893F83530DBB2012BA2
:104020002FD1FB68022283F83520FB6800225A65F5
:104030003B687A68B968F86800F04AFAFB68DB6D9B
:104040003F229A403B699A60FB681B681A68FB68CC
:104050001B6842F016021A60FB681B6C002B07D02D
:10406000FB681B681A68FB681B6842F008021A604C
:10407000FB681B681A68FB681B6842F001021A6043
:1040800005E0FB68002283F834200223FB75FB7DEA
:1040900018461837BD4680BD80B584B000AF786043
:1040A0007B689B6DFB60FFF76DF9B8607B6893F8E8
:1040B0003530DBB2022B08D07B6880225A657B68E2
:1040C000002283F83420012352E07B681B681A68C1
:1040D0007B681B6822F016021A607B681B685A69AD
:1040E0007B681B6822F080025A617B681B6C002B86
:1040F00003D17B689B6C002B07D07B681B681A6818
:104100007B681B6822F008021A607B681B681A68CB
:104110007B681B6822F001021A6013E0FFF732F996
:104120000246BB68D31A052B0CD97B6820225A653E
:104130007B68032283F835207B68002283F83420D3
:10414000032315E07B681B681B6803F00103002B49
:10415000E4D17B68DB6D3F229A40FB689A607B6804
:10416000012283F835207B68002283F83420002365
:1041700018461037BD4680BD80B483B000AF78606C
:104180007B6893F83530DBB2022B04D07B68802249
:104190005A6501230CE07B68052283F835207B6893
:1041A0001B681A687B681B6822F001021A600023F2
:1041B00018460C37BD4680BC7047000080B586B0FD
:1041C00000AF78600023BB608E4B1B688E4AA2FB59
:1041D00003239B0A7B617B689B6D3B613B691B688A
:1041E000FB607B68DB6D08229A40FB681340002B64
:1041F0001AD07B681B681B6803F00403002B13D0E4
:104200007B681B681A687B681B6822F004021A60CE
:104210007B68DB6D08229A403B699A607B685B6D26
:1042200043F001027B685A657B68DB6D01229A408E
:10423000FB681340002B12D07B681B685B6903F09E
:104240008003002B0BD07B68DB6D01229A403B6919
:104250009A607B685B6D43F002027B685A657B68FD
:10426000DB6D04229A40FB681340002B12D07B6860
:104270001B681B6803F00203002B0BD07B68DB6D0F
:1042800004229A403B699A607B685B6D43F00402AC
:104290007B685A657B68DB6D10229A40FB6813408F
:1042A000002B43D07B681B681B6803F00803002BBE
:1042B0003CD07B68DB6D10229A403B699A607B683A
:1042C0001B681B6803F48023002B18D07B681B68D5
:1042D0001B6803F40023002B08D17B681B6C002BA8
:1042E00024D07B681B6C786898471FE07B689B6CC8
:1042F000002B1BD07B689B6C7868984716E07B6826
:104300001B681B6803F48073002B07D17B681B6854
:104310001A687B681B6822F008021A607B681B6CB5
:10432000002B03D07B681B6C786898477B68DB6D3B
:1043300020229A40FB681340002B00F08F807B689E
:104340001B681B6803F01003002B00F087807B685C
:10435000DB6D20229A403B699A607B6893F8353088
:10436000DBB2052B36D17B681B681A687B681B683B
:1043700022F016021A607B681B685A697B681B680A
:1043800022F080025A617B681B6C002B03D17B6892
:104390009B6C002B07D07B681B681A687B681B68C6
:1043A00022F008021A607B68DB6D3F229A403B696D
:1043B0009A607B68012283F835207B68002283F8AD
:1043C00034207B681B6D002B7ED07B681B6D78686A
:1043D000984779E07B681B681B6803F48023002BF7
:1043E0001DD07B681B681B6803F40023002B0DD1D4
:1043F0007B685B6C002B31D07B685B6C786898477E
:104400002CE000BF00000020B5814E1B7B68DB6BF9
:10441000002B23D07B68DB6B786898471EE07B68B5
:104420001B681B6803F48073002B0FD17B681B682B
:104430001A687B681B6822F010021A607B680122F0
:1044400083F835207B68002283F834207B68DB6B9F
:10445000002B03D07B68DB6B786898477B685B6DCB
:10446000002B32D07B685B6D03F00103002B22D060
:104470007B68052283F835207B681B681A687B6897
:104480001B6822F001021A60BB680133BB607A69C5
:104490009A4207D37B681B681B6803F00103002B5B
:1044A000F2D100E000BF7B68012283F835207B68F1
:1044B000002283F834207B68DB6C002B05D07B68FE
:1044C000DB6C7868984700E000BF1837BD4680BDB8
:1044D00080B485B000AFF860B9607A603B60FB687B
:1044E0001B681A68FB681B6822F480221A60FB684C
:1044F0001B683A685A60FB689B68402B08D1FB68D0
:104500001B687A689A60FB681B68BA68DA6007E023
:10451000FB681B68BA689A60FB681B687A68DA6097
:1045200000BF1437BD4680BC7047000080B485B022
:1045300000AF78607B681B68DBB2103B134AA2FBBC
:1045400003231B09FB60124AFB6813441B781A46BD
:104550007B68DA65FB68032B09D97B681B6823F449
:104560007F7323F003031A1D7B689A6507E07B685D
:104570001B6823F47F7323F003037A6893657B68D9
:104580009B6D18461437BD4680BC7047ABAAAAAADB
:1045900080BB000880B485B000AF78600023FB7357
:1045A0007B689B6ABB607B689B69002B1FD1BB68E3
:1045B000032B56D801A252F823F000BFCD450008C6
:1045C000DF450008CD450008634600087B68DB6ACC
:1045D00003F08073002B46D00123FB7343E07B681C
:1045E000DB6AB3F1C07F40D10123FB733DE07B6800
:1045F0009B69B3F5005F21D1BB68032B37D801A2BB
:1046000052F823F0154600081B460008154600081E
:104610002D4600080123FB7330E07B68DB6A03F062
:104620008073002B25D00123FB7322E07B68DB6ABB
:10463000B3F1C07F1FD10123FB731CE0BB68022BC9
:1046400003D9BB68032B03D018E00123FB7315E0EB
:104650007B68DB6A03F08073002B0ED00123FB73B1
:104660000BE000BF0AE000BF08E000BF06E000BFAB
:1046700004E000BF02E000BF00E000BFFB7B184683
:104680001437BD4680BC704780B489B000AF7860F5
:10469000396000237B6100233B610023BB61002361
:1046A000FB6165E10122FB6902FA03F37B613B6870
:1046B0001B687A6913403B613A697B699A4240F012
:1046C00054813B685B6803F00303012B05D03B6812
:1046D0005B6803F00303022B30D17B689B68BB61EE
:1046E000FB695B00032202FA03F3DB43BA69134060
:1046F000BB613B68DA68FB695B0002FA03F3BA69E5
:104700001343BB617B68BA699A607B685B68BB6175
:104710000122FB6902FA03F3DB43BA691340BB6170
:104720003B685B681B0903F00102FB6902FA03F3B3
:10473000BA691343BB617B68BA695A603B685B68BE
:1047400003F00303032B17D07B68DB68BB61FB69B5
:104750005B00032202FA03F3DB43BA691340BB6137
:104760003B689A68FB695B0002FA03F3BA6913437A
:10477000BB617B68BA69DA603B685B6803F003037E
:10478000022B23D1FB69DA087B68083253F8223008
:10479000BB61FB6903F007039B000F2202FA03F3DE
:1047A000DB43BA691340BB613B681A69FB6903F0DC
:1047B00007039B0002FA03F3BA691343BB61FB6969
:1047C000DA087B680832B96943F822107B681B68F5
:1047D000BB61FB695B00032202FA03F3DB43BA69A6
:1047E0001340BB613B685B6803F00302FB695B003D
:1047F00002FA03F3BA691343BB617B68BA691A60B2
:104800003B685B6803F44033002B00F0AE8000236C
:10481000FB605C4B5B6C5B4A43F480435364594BD5
:104820005B6C03F48043FB60FB68574AFB699B08A1
:10483000023352F82330BB61FB6903F003039B0092
:104840000F2202FA03F3DB43BA691340BB617B68B2
:104850004E4A934225D07B684D4A93421FD07B68D5
:104860004C4A934219D07B684B4A934213D07B68E1
:104870004A4A93420DD07B68494A934207D07B68ED
:10488000484A934201D106230CE007230AE005239E
:1048900008E0042306E0032304E0022302E00123EE
:1048A00000E00023FA6902F0030292009340BA6923
:1048B0001343BB613449FB699B080233BA6941F871
:1048C0002320394B9B68BB613B69DB43BA691340CA
:1048D000BB613B685B6803F48013002B03D0BA69AB
:1048E0003B691343BB61304ABB6993602E4BDB6865
:1048F000BB613B69DB43BA691340BB613B685B68E2
:1049000003F40013002B03D0BA693B691343BB6166
:10491000254ABB69D360244B5B68BB613B69DB43C1
:10492000BA691340BB613B685B6803F40033002B3A
:1049300003D0BA693B691343BB611B4ABB6953602F
:10494000194B1B68BB613B69DB43BA691340BB6110
:104950003B685B6803F48033002B03D0BA693B6982
:104960001343BB61104ABB691360FB690133FB61F0
:10497000FB690F2B7FF696AE00BF00BF2437BD4604
:1049800080BC7047003802400038014000000240FF
:104990000004024000080240000C024000100240E7
:1049A0000014024000180240003C014080B487B06F
:1049B00000AF7860396000233B610023FB60002377
:1049C000BB6000237B61C7E001227B6902FA03F32D
:1049D0003B613A683B691340FB60FA683B699A4265
:1049E00040F0B780614A7B699B08023352F823305C
:1049F000BB607B6903F003039B000F2202FA03F301
:104A0000BA681340BB607B68594A934225D07B68E3
:104A1000584A93421FD07B68574A934219D07B680B
:104A2000564A934213D07B68554A93420DD07B6817
:104A3000544A934207D07B68534A934201D10623DC
:104A40000CE007230AE0052308E0042306E0032323
:104A500004E0022302E0012300E000237A6902F06F
:104A6000030292009340BA689A4232D1474B1A68C7
:104A7000FB68DB43454913400B60444B5A68FB68B5
:104A8000DB43424913404B60404BDA68FB68DB4331
:104A90003E491340CB603D4B9A68FB68DB433B4982
:104AA00013408B607B6903F003039B000F2202FA23
:104AB00003F3BB602D4A7B699B08023352F8231035
:104AC000BB68DA4329487B699B080A40023340F8F7
:104AD00023207B681A687B695B00032101FA03F3DA
:104AE000DB431A407B681A607B69DA087B6808320E
:104AF00053F822107B6903F007039B000F2202FA90
:104B000003F3DB437A69D20819407B68083243F823
:104B100022107B68DA687B695B00032101FA03F3EA
:104B2000DB431A407B68DA607B685A6801217B6945
:104B300001FA03F3DB431A407B685A607B689A688A
:104B40007B695B00032101FA03F3DB431A407B68B6
:104B50009A607B6901337B617B690F2B7FF634AFF1
:104B600000BF00BF1C37BD4680BC70470038014005
:104B7000000002400004024000080240000C024015
:104B8000001002400014024000180240003C0140A6
:104B900080B483B000AF78600B467B8013467B7097
:104BA0007B78002B03D07A887B689A6103E07B884E
:104BB0001A047B689A6100BF0C37BD4680BC704701
:104BC00080B582B000AF00237B6000233B60204BA8
:104BD0001B6C1F4A43F0805313641D4B1B6C03F086
:104BE00080533B603B681B4B01221A60FEF7CAFBF7
:104BF000786009E0FEF7C6FB02467B68D31AB3F57E
:104C00007A7F01D903231FE0134B5B6803F48033E1
:104C1000B3F5803FEED1114B01221A60FEF7B2FBD3
:104C2000786009E0FEF7AEFB02467B68D31AB3F565
:104C30007A7F01D9032307E0074B5B6803F4003355
:104C4000B3F5003FEED1002318460837BD4680BDBE
:104C50000038024040000E420070004044000E4206
:104C600080B584B000AF786039607B68002B01D1DB
:104C70000123CCE0684B1B6803F00F033A689A42AB
:104C80000CD9654B3A68D2B21A70634B1B6803F0BB
:104C90000F033A689A4201D00123B8E07B681B6891
:104CA00003F00203002B20D07B681B6803F0040391
:104CB000002B05D0594B9B68584A43F4E05393604E
:104CC0007B681B6803F00803002B05D0534B9B68DF
:104CD000524A43F460439360504B9B6823F0F002C8
:104CE0007B689B684D4913438B607B681B6803F0AE
:104CF0000103002B44D07B685B68012B07D1474B35
:104D00001B6803F40033002B19D101237FE07B687B
:104D10005B68022B03D07B685B68032B07D13F4B9A
:104D20001B6803F00073002B09D101236FE03B4B9C
:104D30001B6803F00203002B01D1012367E0374B0E
:104D40009B6823F003027B685B68344913438B60E4
:104D5000FEF718FBF8600AE0FEF714FB0246FB685A
:104D6000D31A41F28832934201D903234FE02B4BEF
:104D70009B6803F00C027B685B689B009A42EBD156
:104D8000254B1B6803F00F033A689A420CD2224B62
:104D90003A68D2B21A70204B1B6803F00F033A68CE
:104DA0009A4201D0012332E07B681B6803F00403C0
:104DB000002B08D0194B9B6823F4E0527B68DB681A
:104DC000164913438B607B681B6803F00803002BB4
:104DD00009D0124B9B6823F460427B681B69DB009F
:104DE0000E4913438B6000F053F802460B4B9B684F
:104DF0001B0903F00F030A49CB5C22FA03F3094AAB
:104E00001360094B1B681846FEF77AFA0023184610
:104E10001037BD4680BD00BF003C02400038024054
:104E200068BB0008000000200400002080B400AF30
:104E3000024B1B681846BD4680BC7047000000202E
:104E400080B500AFFFF7F2FF0246054B9B689B0A57
:104E500003F007030349CB5C22FA03F3184680BD35
:104E60000038024078BB000880B500AFFFF7DEFFD6
:104E70000246054B9B685B0B03F007030349CB5CC1
:104E800022FA03F3184680BD0038024078BB0008C0
:104E90002DE9B04FA6B000AF0023C7F88C30002337
:104EA000C7F894300023C7F888300023C7F884304F
:104EB0000023C7F89030C44B9B6803F00C030C2B05
:104EC00000F2888101A252F823F000BF014F0008D0
:104ED000D5510008D5510008D5510008094F0008E8
:104EE000D5510008D5510008D5510008114F0008D0
:104EF000D5510008D5510008D55100087D50000853
:104F0000B24BC7F8903069E1B14BC7F8903065E11A
:104F1000AD4B5B6803F03F03C7F88C30AA4B5B686E
:104F200003F48003002B30D0A74B5B689B09002261
:104F3000BB66FA66BB6EC3F308033B6600237B6661
:104F4000A34BD7E918452A4603FB02F2002321466A
:104F500001FB03F313449E4A2146A1FB0221F9679A
:104F6000BA67FA6F1344FB67D7F88C300022BB6531
:104F7000FA65D7E91623D7E91E01FCF75FF8024668
:104F80000B461346C7F8943066E08F4B5B689B096D
:104F900000223B657A653B6DC3F30803BB640023C5
:104FA000FB64D7E9124522462B464FF000004FF034
:104FB0000001590141EAD261500102460B462146E7
:104FC000511A3961294663EB01037B614FF00002FE
:104FD0004FF00003D7E904AB59468B01514643EA31
:104FE000916351468A01D446B2EB0C08594663EBF3
:104FF00001094FF000024FF000034FEAC90343EAF2
:1050000058734FEAC80290469946234618EB0303AB
:10501000BB602B4649EB0303FB604FF000024FF0EF
:105020000003D7E9024529468B022046294604465B
:1050300043EA945301468A0210461946D7F88C3049
:1050400000223B647A64D7E91023FBF7F7FF02469E
:105050000B461346C7F894305B4B5B681B0C03F0A0
:10506000030301335B00C7F88830D7F89420D7F8E2
:105070008830B2FBF3F3C7F89030AFE0524B5B6877
:1050800003F03F03C7F88C304F4B5B6803F4800399
:10509000002B29D04C4B5B689B090022BB63FA6351
:1050A000BB6BC3F308000021494B03FB01F2002353
:1050B00000FB03F31344464AA0FB022179673A67D9
:1050C0007A6F13447B67D7F88C3000223B637A6396
:1050D000D7E90C23D7E91C01FBF7B0FF02460B46CA
:1050E0001346C7F894305FE0374B5B689B0900229A
:1050F000BB62FA62BB6AC3F308033B6200237B62B4
:10510000D7E9088942464B464FF000004FF00001B6
:10511000590141EAD261500102460B46C446B2EB46
:105120000C0A404649468C4663EB0C0B4FF00002DC
:105130004FF000034FEA8B1343EA9A634FEA8A1257
:10514000B2EB0A0463EB0B054FF000024FF00003D3
:10515000EB0043EA5473E20014461D460346E3188D
:105160003B600B4645EB03037B604FF000024FF0C2
:105170000003D7E9004529468B022046294604460C
:1051800043EA945301468A0210461946D7F88C30F8
:105190000022BB61FA61D7E90623FBF74FFF024605
:1051A0000B461346C7F89430074B5B681B0F03F0A0
:1051B0000703C7F88430D7F89420D7F88430B2FBBF
:1051C000F3F3C7F8903009E0003802400024F400FF
:1051D00040787D01054BC7F8903000BFD7F890307C
:1051E00018469837BD46BDE8B08F00BF0024F400D4
:1051F00080B586B000AF78607B68002B01D10123B9
:105200008DE27B681B6803F00103002B00F08380B4
:10521000944B9B6803F00C03042B19D0914B9B68B3
:1052200003F00C03082B06D18E4B5B6803F480035C
:10523000B3F5800F0CD08B4B9B6803F00C030C2B49
:1052400012D1884B5B6803F48003B3F5800F0BD158
:10525000844B1B6803F40033002B5BD07B685B68D6
:10526000002B57D101235AE27B685B68B3F5803F7E
:1052700006D17C4B1B687B4A43F4803313601DE0EE
:105280007B685B68B3F5A02F0CD1764B1B68754A21
:1052900043F480231360734B1B68724A43F48033DA
:1052A00013600BE06F4B1B686E4A23F4803313606E
:1052B0006C4B1B686B4A23F4802313607B685B682C
:1052C000002B13D0FEF75EF8386108E0FEF75AF8BD
:1052D00002463B69D31A642B01D903231FE2614BB9
:1052E0001B6803F40033002BF0D014E0FEF74AF8FB
:1052F000386108E0FEF746F802463B69D31A642B92
:1053000001D903230BE2574B1B6803F40033002B36
:10531000F0D100E000BF7B681B6803F00203002BA4
:105320006FD0504B9B6803F00C03002B17D04D4BF4
:105330009B6803F00C03082B05D14A4B5B6803F410
:105340008003002B0BD0474B9B6803F00C030C2B06
:105350001CD1444B5B6803F48003002B16D1414BF6
:105360001B6803F00203002B05D07B68DB68012B70
:1053700001D00123D3E13B4B1B6823F0F8027B688B
:105380001B69DB00374913430B603AE07B68DB683D
:10539000002B20D0344B01221A60FDF7F3FF386157
:1053A00008E0FDF7EFFF02463B69D31A022B01D953
:1053B0000323B4E12B4B1B6803F00203002BF0D056
:1053C000284B1B6823F0F8027B681B69DB0025492A
:1053D00013430B6015E0244B00221A60FDF7D2FF47
:1053E000386108E0FDF7CEFF02463B69D31A022B75
:1053F00001D9032393E11B4B1B6803F00203002B2D
:10540000F0D17B681B6803F00803002B36D07B6863
:105410005B69002B16D0154B01221A60FDF7B2FF15
:10542000386108E0FDF7AEFF02463B69D31A022B54
:1054300001D9032373E10B4B5B6F03F00203002BD5
:10544000F0D01BE0094B00221A60FDF79BFF38618A
:105450000EE0FDF797FF02463B69D31A022B07D9EE
:1054600003235CE10038024000004742800E4742BF
:105470008A4B5B6F03F00203002BEAD17B681B6849
:1054800003F00403002B00F097800023FB75834B8F
:105490001B6C03F08053002B0FD10023BB607F4BAC
:1054A0001B6C7E4A43F0805313647C4B1B6C03F0EF
:1054B0008053BB60BB680123FB75794B1B6803F409
:1054C0008073002B18D1764B1B68754A43F48073A8
:1054D0001360FDF757FF386108E0FDF753FF024600
:1054E0003B69D31A022B01D9032318E16C4B1B68CB
:1054F00003F48073002BF0D07B689B68012B06D1EE
:10550000664B1B6F654A43F0010313671CE07B6821
:105510009B68052B0CD1614B1B6F604A43F0040361
:1055200013675E4B1B6F5D4A43F0010313670BE08B
:105530005A4B1B6F594A23F001031367574B1B6FDC
:10554000564A23F0040313677B689B68002B15D031
:10555000FDF718FF38610AE0FDF714FF02463B69CA
:10556000D31A41F28832934201D90323D7E04B4B3F
:105570001B6F03F00203002BEED014E0FDF702FFD7
:1055800038610AE0FDF7FEFE02463B69D31A41F29C
:105590008832934201D90323C1E0404B1B6F03F0D3
:1055A0000203002BEED1FB7D012B05D13B4B1B6C85
:1055B0003A4A23F0805313647B689B69002B00F008
:1055C000AD80364B9B6803F00C03082B60D07B68E2
:1055D0009B69022B45D1334B00221A60FDF7D2FEA6
:1055E000386108E0FDF7CEFE02463B69D31A022B74
:1055F00001D9032393E0294B1B6803F00073002BB0
:10560000F0D17B68DA697B681B6A1A437B685B6A46
:105610009B011A437B689B6A5B08013B1B041A438E
:105620007B68DB6A1B061A437B681B6B1B071B49E5
:1056300013434B601B4B01221A60FDF7A3FE386138
:1056400008E0FDF79FFE02463B69D31A022B01D901
:10565000032364E0114B1B6803F00073002BF0D0B0
:105660005CE0104B00221A60FDF78CFE386108E008
:10567000FDF788FE02463B69D31A022B01D90323AA
:105680004DE0064B1B6803F00073002BF0D145E0A2
:105690007B689B69012B07D1012340E00038024061
:1056A00000700040600047421F4B5B68FB607B68F6
:1056B0009B69012B30D0FB6803F480027B68DB69B7
:1056C0009A4229D1FB6803F03F027B681B6A9A4229
:1056D00022D1FA6847F6C07313407A68526A920181
:1056E000934219D1FB6803F440327B689B6A5B08E4
:1056F000013B1B049A420FD1FB6803F070627B6888
:10570000DB6A1B069A4207D1FB6803F0E0427B6824
:105710001B6B1B079A4201D0012300E000231846AF
:105720001837BD4680BD00BF0038024080B582B04A
:1057300000AF78607B68002B01D101237BE07B68A0
:105740005B6A002B08D17B685B68B3F5827F09D068
:105750007B680022DA6105E07B6800221A617B68C1
:1057600000225A617B6800229A627B6893F851306C
:10577000DBB2002B06D17B68002283F850207868CA
:10578000FDF7FAF97B68022283F851207B681B68D9
:105790001A687B681B6822F040021A607B685B68AD
:1057A00003F482727B689B6803F404431A437B68AA
:1057B000DB6803F400631A437B681B6903F0020390
:1057C0001A437B685B6903F001031A437B689B699A
:1057D00003F400731A437B68DB6903F038031A4350
:1057E0007B681B6A03F0800342EA03017B689B6AC3
:1057F00003F400527B681B680A431A607B689B694C
:105800001B0C03F004017B685B6A03F010027B68E9
:105810001B680A435A607B681B68DA697B681B68EF
:1058200022F40062DA617B6800225A657B680122FB
:1058300083F85120002318460837BD4680BD80B547
:1058400088B000AFF860B9603B601346FB8000236E
:10585000FB77FB6893F85030012B01D1022326E13E
:10586000FB68012283F85020FDF78CFDB861FB88AE
:10587000FB82FB6893F85130DBB2012B02D002238C
:10588000FB770BE1BB68002B02D0FB88002B02D119
:105890000123FB7702E1FB68032283F85120FB68B8
:1058A00000225A65FB68BA681A63FB68FA889A8610
:1058B000FB68FA88DA86FB6800229A63FB6800229C
:1058C0009A87FB680022DA87FB6800225A64FB682B
:1058D00000221A64FB689B68B3F5004F0FD1FB6888
:1058E0001B681A68FB681B6822F040021A60FB689C
:1058F0001B681A68FB681B6842F480421A60FB68E8
:105900001B681B6803F04003402B07D0FB681B6833
:105910001A68FB681B6842F040021A60FB68DB688B
:10592000B3F5006F4BD1FB685B68002B02D0FB8A9C
:10593000012B3ED1FB681B6B1A88FB681B68DA6081
:10594000FB681B6B9A1CFB681A63FB68DB8E9BB2BF
:10595000013B9AB2FB68DA862BE0FB681B689B6808
:1059600003F00203022B12D1FB681B6B1A88FB6841
:105970001B68DA60FB681B6B9A1CFB681A63FB6888
:10598000DB8E9BB2013B9AB2FB68DA8611E0FDF731
:10599000F9FC0246BB69D31A3A689A4203D83B68BD
:1059A000B3F1FF3F02D13B68002B02D10323FB7709
:1059B00074E0FB68DB8E9BB2002BCED14CE0FB6821
:1059C0005B68002B02D0FB8A012B40D1FB681A6B6D
:1059D000FB681B680C3312781A70FB681B6B5A1C2F
:1059E000FB681A63FB68DB8E9BB2013B9AB2FB68D3
:1059F000DA862CE0FB681B689B6803F00203022B2D
:105A000013D1FB681A6BFB681B680C3312781A7091
:105A1000FB681B6B5A1CFB681A63FB68DB8E9BB22E
:105A2000013B9AB2FB68DA8611E0FDF7ABFC024657
:105A3000BB69D31A3A689A4203D83B68B3F1FF3F77
:105A400002D13B68002B02D10323FB7726E0FB68E1
:105A5000DB8E9BB2002BCDD1BA693968F86800F0B3
:105A6000B3F80346002B02D0FB6820225A65FB687E
:105A70009B68002B0AD100233B61FB681B68DB6835
:105A80003B61FB681B689B683B613B69FB685B6D26
:105A9000002B02D00123FB7700E000BFFB6801224E
:105AA00083F85120FB68002283F85020FB7F1846C2
:105AB0002037BD4680BD000080B588B000AFF860DB
:105AC000B9603B601346FB71FDF75CFC0246BB6AA4
:105AD0009B1A3A681344FB61FDF754FCB861394BDB
